:10080000AF90EF120864082500082C010833020895
:100810003A04084108084810084F20085640085D6F
:1008200080000008637580C0E4F5A0227580F9752A
:10083000A001227580A475A002227580B075A00465
:100840002275809975A0082275809275A010227576
:10085000808275A020227580F875A0402275808066
:0308600075A08000
:010863002272
:0300000002088A69
:0C088A00787FE4F6D8FD758107020800B5
:10086400D083D082F8E4937012740193700DA3A323
:1008740093F8740193F5828883E473740293686037
:06088400EFA3A3A380DF37
:00000001FF
