:1008F800010800010B00010900090CC0F9A4B09916
:040908009282F8805F
:1008E000E50AC395085004050A8009E50AD395086E
:0808F0004002150A850A0822E6
:0208BD00AD0785
:1008BF00E4FC7E007401A804088005C333CE33CE58
:1008CF00D8F9FFEDFBEF5B60038C08220CBC08E24C
:0108DF0022F6
:10088C0085900985B00BE50AB5080AAF091208BDB9
:10089C00AF0B1208BD1208E0740D250AF8E6F580BE
:1008AC00AF0AA8077401088002C333D8FCF5A080F6
:0108BC00CF6C
:03000000020800F3
:0C080000787FE4F6D8FD758114020847EB
:10080C0002088CE493A3F8E493A34003F68001F26E
:10081C0008DFF48029E493A3F85407240CC8C333ED
:10082C00C4540F4420C8834004F456800146F6DFBC
:10083C00E4800B01020408102040809008F8E47E4C
:10084C00019360BCA3FF543F30E509541FFEE493B1
:10085C00A360010ECF54C025E060A840B8E493A378
:10086C00FAE493A3F8E493A3C8C582C8CAC583CAA3
:10087C00F0A3C8C582C8CAC583CADFE9DEE780BE5B
:01090C0000EA
:00000001FF
