:10093900010800010900090BC0F9A4B0999282F8D5
:01094900802D
:10092100E50AC395085004050A8009E50AD395082C
:080931004002150A850A0822A4
:1008FF00E4FD7E007401A805088005C333CE33CE16
:10090F00D8F9FFE509FBEF5B60038D08220DBD08E9
:01091F00E1F6
:0109200022B4
:10088C00AC9085B009E50A6508704C1208FFAF04FE
:10089C00EC24FE602124FE602224FC602324F860FA
:1008AC002424F0602524E0602624C06027247F7077
:1008BC0026E4F5088021750801801C750802801754
:1008CC007508038012750804800D7508058008757D
:1008DC0008068003750807120921740C250AF8E62E
:1008EC00F580AF0AA8077401088002C333D8FCF561
:0308FC00A0808D4C
:03000000020800F3
:0C080000787FE4F6D8FD758113020847EC
:10080C0002088CE493A3F8E493A34003F68001F26E
:10081C0008DFF48029E493A3F85407240CC8C333ED
:10082C00C4540F4420C8834004F456800146F6DFBC
:10083C00E4800B0102040810204080900939E47E0A
:10084C00019360BCA3FF543F30E509541FFEE493B1
:10085C00A360010ECF54C025E060A840B8E493A378
:10086C00FAE493A3F8E493A3C8C582C8CAC583CAA3
:10087C00F0A3C8C582C8CAC583CADFE9DEE780BE5B
:01094A0000AC
:00000001FF
